:100000000C9462000C942C100C9405100C948A0033
:100010000C948A000C94E5120C948A000C945512EE
:100020000C948A000C948A000C948A000C9453104F
:100030000C948A000C942E120C948A000C948A0062
:100040000C94BB0F0C948A000C94890F0C94630FD2
:100050000C948A000C948A000C948A000C948A00F8
:100060000C940F110C948A0000000000240027005B
:100070002A0000000000250028002B0000000008D6
:10008000000201000003040700000000000000005F
:1000900000000000230026002900040404040404D6
:1000A0000404020202020202030303030303010227
:1000B00004081020408001020408102001020408F6
:1000C0001020BA1411241FBECFEFD8E0DEBFCDBF81
:1000D00011E0A0E0B1E0EAEDFAE402C005900D9273
:1000E000AA3CB107D9F726E0AAECB1E001C01D9205
:1000F000A23DB207E1F710E0C2E6D0E004C02197CC
:10010000FE010E944B23C136D107C9F70E940B158F
:100110000C946B250C940000E0912B02F0912C02C2
:10012000309729F010921306109212060994089540
:10013000CF93DF93EC01E0912902F0912A023097EE
:10014000F1F090911506809114069817C0F090E098
:10015000292F30E02617370754F4DE01A20FB31F12
:100160004C9122513A4FD9014C939F5FF1CF10929D
:10017000150660931406CB01DF91CF910994DF91AE
:10018000CF91089590911506809114062FEF3FEFBF
:10019000981748F4E92FF0E0E251FA4F208130E05F
:1001A0009F5F90931506C90108959091150680915F
:1001B00014062FEF3FEF981748F4E92FF0E0E251D3
:1001C000FA4F208130E09F5F90931506C901089592
:1001D00020E0DC0160FF03C001C02D932D9362502D
:1001E000E0F77040D0F708958091FE049091FF04ED
:1001F00001969093FF048093FE040895089580E98A
:1002000091E008958091140690911506891B990B31
:100210000895AF92BF92CF92DF92EF92FF920F9329
:100220001F93CF93DF936C017B018B01040F151F8C
:10023000EB015E01AE18BF08C017D10759F06991F4
:10024000D601ED91FC910190F081E02DC601099558
:10025000892B79F7C501DF91CF911F910F91FF9005
:10026000EF90DF90CF90BF90AF900895FC01538D39
:10027000448D252F30E0842F90E0821B930B541780
:1002800010F0CF96089501970895FC01918D828D0D
:10029000981761F0A28DAE0FBF2FB11D5D968C91A6
:1002A000928D9F5F9F73928F90E008958FEF9FEFE5
:1002B0000895FC01918D828D981731F0828DE80FA1
:1002C000F11D858D90E008958FEF9FEF0895FC015B
:1002D000918D228D892F90E0805C9F4F821B910928
:1002E0008F739927089586E196E00E94670121E0C7
:1002F000892B09F420E0822F089580E090E0892B7B
:1003000029F00E94730181110C9400000895FC01F2
:10031000A48DA80FB92FB11DA35ABF4F2C91848D66
:1003200090E001968F739927848FA689B7892C93C3
:10033000A089B1898C91837080648C93938D848D16
:10034000981306C00288F389E02D80818F7D808319
:100350000895EF92FF920F931F93CF93DF93EC01D9
:1003600081E0888F9B8D8C8D98131AC0E889F9895C
:10037000808185FF15C09FB7F894EE89FF8960835F
:10038000E889F98980818370806480839FBF81E0E0
:1003900090E0DF91CF911F910F91FF90EF90089522
:1003A000F62E0B8D10E00F5F1F4F0F731127E02EFD
:1003B0008C8D8E110CC00FB607FCFACFE889F98935
:1003C000808185FFF5CFCE010E948701F1CFEB8DB3
:1003D000EC0FFD2FF11DE35AFF4FF0829FB7F89409
:1003E0000B8FEA89FB8980818062CFCFCF93DF9327
:1003F000EC01888D8823B9F0AA89BB89E889F9893D
:100400008C9185FD03C0808186FD0DC00FB607FC71
:10041000F7CF8C9185FFF2CF808185FFEDCFCE01A4
:100420000E948701E9CFDF91CF910895833081F059
:1004300028F4813099F08230A9F008958730A9F02E
:100440008830C9F08430B1F4809180008F7D03C082
:10045000809180008F7780938000089584B58F7796
:1004600084BD089584B58F7DFBCF8091B0008F77D8
:100470008093B00008958091B0008F7DF9CFCF9325
:10048000DF93282F30E0F901E458FF4F8491F90100
:10049000E255FF4FD491F901E656FF4FC491CC23AA
:1004A000A1F081110E941602EC2FF0E0EE0FFF1F69
:1004B000E057FF4FA591B491EC91ED2381E090E0DE
:1004C00009F480E0DF91CF91089580E090E0FACFC9
:1004D000CF93DF9382E00E943F02EC0183E00E9411
:1004E0003F028C239D23019719F481E08093CA0178
:1004F000DF91CF9108951F93CF93DF93282F30E0A2
:10050000F901E458FF4F8491F901E255FF4FD4916E
:10051000F901E656FF4FC491CC23A9F0162F8111A3
:100520000E941602EC2FF0E0EE0FFF1FEE58FF4F77
:10053000A591B4918FB7F894EC91111108C0D095A2
:10054000DE23DC938FBFDF91CF911F910895DE2BC7
:10055000F8CFCF93DF9390E0FC01E255FF4F249159
:1005600086569F4FFC0184918823C9F090E0880F44
:10057000991FFC01E859FF4FA591B491FC01EE5879
:10058000FF4FC591D49161110DC09FB7F8948C9124
:10059000209582238C938881282328839FBFDF9115
:1005A000CF910895623051F49FB7F8943C91822F17
:1005B000809583238C93E8812E2BEFCF8FB7F8940F
:1005C000EC912E2B2C938FBFEACF8E3008F08E50FB
:1005D0008770806480937C0080917A00806480932F
:1005E0007A0080917A0086FDFCCF8091780090910E
:1005F000790008953FB7F8948091250290912602E2
:10060000A0912702B091280226B5A89B05C02F3FD4
:1006100019F00196A11DB11D3FBFBA2FA92F982F28
:100620008827BC01CD01620F711D811D911D42E023
:10063000660F771F881F991F4A95D1F708958F92EB
:100640009F92AF92BF92CF92DF92EF92FF924B01B7
:100650005C010E94FA026B017C010E94FA026C1993
:100660007D098E099F09683E734081059105A8F3B5
:1006700021E0821A9108A108B10888EEC80E83E033
:10068000D81EE11CF11C81149104A104B10429F7C6
:10069000FF90EF90DF90CF90BF90AF909F908F90A2
:1006A00008952FB7F89460912102709122028091F1
:1006B0002302909124022FBF0895CF92DF92EF92F0
:1006C000FF920F931F930E94510300919C0510917C
:1006D0009D0520919E0530919F056B017C01C01AFC
:1006E000D10AE20AF30AA701960121153105410555
:1006F000510521F421E030E040E050E0E0919A051E
:10070000F0919B0588EE93E0E89FB001E99F700DA2
:10071000F89F700D1124072E000C880B990B0E9476
:10072000CF223093B5062093B40610929B05109209
:100730009A050E94510360939C0570939D058093D8
:100740009E0590939F051F910F91FF90EF90DF9072
:10075000CF900895CF92DF92EF92FF920E945103C3
:100760006B017C01C092D501D092D601E092D701F5
:10077000F092D80182E00E943F02892B09F446C022
:1007800060E088E00E947B02C092D101D092D20149
:10079000E092D301F092D4018091D1019091D201E5
:1007A000A091D301B091D4014091CD015091CE01DF
:1007B0006091CF017091D001481759076A077B07F4
:1007C00000F5C090F404D090F504E090F604F090A9
:1007D000F7048C0D9D1DAE1DBF1D841B950BA60B34
:1007E000B70B8093F4049093F504A093F604B093B0
:1007F000F7041092D1011092D2011092D3011092FD
:10080000D401FF90EF90DF90CF900895C092CD017A
:10081000D092CE01E092CF01F092D00161E088E069
:100820000E947B02B9CF2091FC01260F3327331F92
:1008300021323105ECF42091E805FC0190E080E0E4
:10084000243069F082E00895A091FC012191AC016F
:1008500044525E4FA40FB52FB11D2C9301968617FD
:1008600098F38091FC01680F6093FC0180E008958B
:1008700081E008951092E80581E08093E7051092E9
:10088000E20561E082E10E947B0261E083E10E9477
:100890007B02E9EBF0E080818E7F808380818D7F19
:1008A000808388E48093B80085E48093BC00089539
:1008B000109215061092140610921306109212064A
:1008C0000E943A048CE890E0909311068093100601
:1008D00088E990E090930F0680930E060895CF93D9
:1008E000DF9391E09093DB018823B9F0C091B800C9
:1008F000D091BA008091BC008A7B8093BC0060E0FC
:1009000082E10E947B0260E083E10E947B020E9400
:100910003A04D093BA00C093B800DF91CF91089504
:10092000CF92DF92EF92FF920F931F93CF93DF93BB
:10093000D82FC62F613208F098C00E94FA026B01CE
:100940007C018091E80581116BC081E08093E8050E
:100950008093E7059FEF9093E6051092E5059C0FC5
:100960009093E4058093E3058091E305DD0FD82B98
:10097000D093E3058091E205813009F078C01092B0
:10098000E2050E94FA026B017C018091E3058093ED
:10099000BB008091EA059091EB05A091EC05B09128
:1009A000ED05892B8A2B8B2BA1F00E94FA02009176
:1009B000EA051091EB052091EC053091ED056C19DD
:1009C0007D098E099F09061717072807390708F4BC
:1009D00048C08091BC0083FDD8CF85EC8093BC00DB
:1009E0000E94FA026B017C018091E805813009F4D4
:1009F00040C08091E5058C1710F4C091E505E2EC4C
:100A0000F5E0AEEEB5E080E08C1355C08C2FDF91A1
:100A1000CF911F910F91FF90EF90DF90CF900895AD
:100A20008091EA059091EB05A091EC05B091ED0560
:100A3000892B8A2B8B2B09F484CF0E94FA02009118
:100A4000EA051091EB052091EC053091ED056C194C
:100A50007D098E099F09061717072807390708F02F
:100A600070CF8091E9050E946F04C0E0CFCF85EE82
:100A7000B5CF8091EA059091EB05A091EC05B0917E
:100A8000ED05892B8A2B8B2B09F4AECF0E94FA023D
:100A90000091EA051091EB052091EC053091ED05F0
:100AA0006C197D098E099F09061717072807390752
:100AB00008F09ACFD6CF91919D938F5FA5CF8F925B
:100AC0009F92AF92BF92CF92DF92EF92FF920F93DD
:100AD0001F93CF93DF93D0911206D13208F0D7C085
:100AE000182FC091C1050E94FA026B017C01809110
:100AF000E80581116BC082E08093E8051093E7055B
:100B00008FEF8093E6051092E505D093E405A1EA06
:100B1000B5E0E2ECF5E080E0D81391C01092E30577
:100B20008091E305CC0FC82BC093E3058091E205CB
:100B3000813009F088C01092E2050E94FA026B0130
:100B40007C018091E3058093BB008091EA05909140
:100B5000EB05A091EC05B091ED05892B8A2B8B2B31
:100B6000A1F00E94FA020091EA051091EB05209194
:100B7000EC053091ED056C197D098E099F0906176A
:100B800017072807390708F442C08091BC0083FD8D
:100B9000D8CF85EC8093BC000E94FA026B017C01E7
:100BA0008091E805823009F450C08091E6058F3FBE
:100BB00009F46FC08091E605803209F46CC0809121
:100BC000E605803309F469C084E026C08091EA0517
:100BD0009091EB05A091EC05B091ED05892B8A2B46
:100BE0008B2B09F484CF0E94FA028090EA05909042
:100BF000EB05A090EC05B090ED056C197D098E0910
:100C00009F0986169706A806B90608F070CF80914E
:100C1000E9050E946F0485E01092130610921206F7
:100C20001092A005DF91CF911F910F91FF90EF904F
:100C3000DF90CF90BF90AF909F908F9008959D913F
:100C400091938F5F69CF85EEA5CF8091EA05909152
:100C5000EB05A091EC05B091ED05892B8A2B8B2B30
:100C600009F49ECF0E94FA020091EA051091EB056B
:100C70002091EC053091ED056C197D098E099F09D5
:100C8000061717072807390708F08ACFC0CF81E079
:100C9000C3CF80E0C1CF82E0BFCF83E0BDCF089556
:100CA000E091150680911406E81730F4F0E0E25167
:100CB000FA4F808190E008958FEF9FEF0895CF92D3
:100CC000DF92EF92FF920F931F93CF93DF937C01FC
:100CD000CB018A012091A005222389F0EB016B0151
:100CE000C40ED51ECC15DD0569F06991D701ED91D3
:100CF000FC910190F081E02DC7010995F3CF642F9D
:100D00000E941304C801DF91CF911F910F91FF90B2
:100D1000EF90DF90CF900895CF93DF931F92CDB7E0
:100D2000DEB769832091A0052223F9F020911206F5
:100D3000203258F021E030E0FC013383228390E040
:100D400080E00F90DF91CF91089580911306E82FF6
:100D5000F0E0EF55FA4F998190838F5F80931306EF
:100D60008093120681E090E0ECCF61E0CE01019625
:100D70000E941304F7CFCF93DF93D82FC62F0E9482
:100D8000580481E08093A0058CE48093C105109203
:100D90001306109212066D2F80EC96E00E948C06CE
:100DA0006C2F80EC96E00E948C0681E0DF91CF9161
:100DB0000C945F0580918E0590918F05813091058F
:100DC00009F086C060915D0580EC96E00E948C067B
:100DD00080918E0590918F05079761F443E050E074
:100DE00066E575E080EC96E00E945F0610928F0544
:100DF00010928E0580918E0590918F058830910517
:100E000011F0449741F444E050E060E675E080EC76
:100E100096E00E945F0680918E0590918F054E9717
:100E200041F449E050E060E675E080EC96E00E9415
:100E30005F0680918E0590918F05459751F445E1AD
:100E400050E060E675E080EC96E00E945F0610924C
:100E5000600580918E0590918F050A9781F444E09A
:100E600050E060E675E080EC96E00E945F0610922C
:100E700007051092060510928F0510928E0580913D
:100E80008E0590918F050B9771F442E050E060EF72
:100E900074E080EC96E00E945F061092F0041092DD
:100EA0008F0510928E0580918E0590918F050C977D
:100EB00071F443E050E06DEE74E080EC96E00E9447
:100EC0005F061092ED0410928F0510928E05089522
:100ED0008330910519F0C89709F07ACF43E050E0CC
:100EE00060E675E080EC96E00E945F0671CF90E0CE
:100EF00080E008950F931F93CF93DF932091DA0141
:100F00002F5F322F37703093DA0120FF2BC020E89B
:100F100031FD2064347009F02062205FFC01EC0197
:100F2000239600E011E06485662329F070E0C80193
:100F30000E941C236F5F6187322F369F030E30E0C3
:100F4000311D1124311110C01682662311F0615039
:100F500061873196EC17FD0731F7DF91CF911F9133
:100F60000F91089520E0D4CF31503683EECF4F92C9
:100F70005F927F928F929F92AF92BF92CF92DF92B9
:100F8000EF92FF920F931F93CF93DF932C01EB010E
:100F90000E94FA02F20127853089621B730B6A30C6
:100FA0007105B0F3F8948A819B81181619060CF02C
:100FB000CDC1E881F9816BB1862E689483F83BB18D
:100FC000377F3BB9DA848F812D2D281B822F2F8309
:100FD0004F85042E000C550BAA81BB817D85FC84B6
:100FE000EE847F5FF394E3949E819884B984AB840C
:100FF0001181C12C6C2D0C2D2C2D21811127889451
:101000002111280F08F42FEF8195889470FD120F9D
:101010001795889471FD120F1795889472FD120F21
:101020001795889473FD120F1795889474FD120F0D
:101030001795889475FD120F1795889476FD120FF9
:101040001795889477FD120F17958894622F711168
:10105000612F8D0D162F002C8BB800C017FF3BB9E8
:1010600020816627889400C000C0002C3BB9211164
:10107000290F00C0002C8BB800C016FF3BB908F444
:101080002FEF9195889400C000C0002C3BB9F0FC74
:10109000620F00C0002C8BB800C015FF3BB96795EC
:1010A0008894F1FC620F00C000C0002C3BB967952A
:1010B000889400C0002C8BB800C014FF3BB9F2FC30
:1010C000620F6795889400C000C0002C3BB9F3FC08
:1010D000620F00C0002C8BB800C013FF3BB96795AE
:1010E0008894F4FC620F00C000C0002C3BB96795E7
:1010F000889400C0002C8BB800C012FF3BB9F5FCEF
:10110000620F6795889400C000C0002C3BB9F6FCC4
:10111000620F00C0002C8BB800C011FF3BB967956F
:101120008894F7FC620F00C000C0002C3BB96795A3
:10113000889400C0002C8BB800C010FF3BB9122F60
:10114000F110162F9B0D00C000C0002C3BB900C051
:1011500000C0002C8BB800C017FF3BB92281662766
:10116000889400C000C0002C3BB92111290D00C09B
:10117000002C8BB800C016FF3BB908F42FEFE40F2A
:10118000F51F00C000C0002C3BB9E0FC620F00C09E
:10119000002C8BB800C015FF3BB967958894E1FC23
:1011A000620F00C000C0002C3BB96795889400C056
:1011B000002C8BB800C014FF3BB9E2FC620F6795AE
:1011C000889400C000C0002C3BB9E3FC620F00C053
:1011D000002C8BB800C013FF3BB967958894E4FCE2
:1011E000620F00C000C0002C3BB96795889400C016
:1011F000002C8BB800C012FF3BB9E5FC620F67956D
:10120000889400C000C0002C3BB9E6FC620F00C00F
:10121000002C8BB800C011FF3BB967958894E7FCA0
:10122000620F00C000C0002C3BB96795889400C0D5
:10123000002C8BB800C010FF3BB9122FE110162F05
:10124000919400C000C0002C3BB99A0C00C000C0B3
:101250008BB800C017FF3BB921816627889400C076
:1012600000C0002C3BB92111280F00C0002C8BB806
:1012700000C016FF3BB908F42FEF8195889400C099
:1012800000C0002C3BB970FD620F00C0002C8BB871
:1012900000C015FF3BB96795889471FD620F00C0CF
:1012A00000C0002C3BB96795889400C0002C8BB817
:1012B00000C014FF3BB972FD620F6795889400C0AF
:1012C00000C0002C3BB973FD620F00C0002C8BB82E
:1012D00000C013FF3BB96795889474FD620F00C08E
:1012E00000C0002C3BB96795889400C0002C8BB8D7
:1012F00000C012FF3BB975FD620F6795889400C06E
:1013000000C0002C3BB976FD620F00C0002C8BB8EA
:1013100000C011FF3BB96795889477FD620F00C04C
:1013200000C0002C3BB96795889400C0002C8BB896
:1013300000C010FF3BB9122F7111162F8D0D00C088
:1013400000C0002C3BB9119709F086CE4A815B8121
:1013500020EE31E0DA010E943023DC01CB01F4E021
:10136000B695A79597958795FA95D1F730E020E047
:10137000B901EAE94E9F040E611D5E9F600D711D6B
:101380001124650F711D860F971FA11DB11D893E88
:1013900043E09407A105B10508F434C0885E93408A
:1013A000A109B10942E0B695A795979587954A9509
:1013B000D1F747E0849F080E211D949F200D311D19
:1013C0001124290F311D6091D90170E0860F971FFC
:1013D000820F931F409121025091220260912302BB
:1013E00070912402292F3327420F531F611D711D55
:1013F00040932102509322026093230270932402AF
:101400008093D90178940E94FA02F201708B678769
:10141000DF91CF911F910F91FF90EF90DF90CF90D0
:10142000BF90AF909F908F907F905F904F90089566
:10143000539A08954F925F927F928F929F92AF92AC
:10144000BF92CF92DF92EF92FF920F931F93CF93B1
:10145000DF932C01EB010E94FA02F201278530890B
:10146000621B730B6A307105B0F3F8948A819B811B
:10147000181619060CF0CDC1E881F9816BB1862EE2
:10148000689485F83BB13F7D3BB9DA848F812D2D7F
:10149000281B822F2F834F85042E000C550BAA8109
:1014A000BB817D85FC84EE847F5FF394E3949E8111
:1014B0009884B984AB841181C12C6C2D0C2D2C2DFA
:1014C0002181112788942111280F08F42FEF81958D
:1014D000889470FD120F1795889471FD120F17955F
:1014E000889472FD120F1795889473FD120F17954B
:1014F000889474FD120F1795889475FD120F179537
:10150000889476FD120F1795889477FD120F179522
:101510008894622F7111612F8D0D162F002C8BB8BE
:1015200000C017FF3BB920816627889400C000C027
:10153000002C3BB92111290F00C0002C8BB800C032
:1015400016FF3BB908F42FEF9195889400C000C0B6
:10155000002C3BB9F0FC620F00C0002C8BB800C01F
:1015600015FF3BB967958894F1FC620F00C000C07D
:10157000002C3BB96795889400C0002C8BB800C044
:1015800014FF3BB9F2FC620F6795889400C000C05D
:10159000002C3BB9F3FC620F00C0002C8BB800C0DC
:1015A00013FF3BB967958894F4FC620F00C000C03C
:1015B000002C3BB96795889400C0002C8BB800C004
:1015C00012FF3BB9F5FC620F6795889400C000C01C
:1015D000002C3BB9F6FC620F00C0002C8BB800C099
:1015E00011FF3BB967958894F7FC620F00C000C0FB
:1015F000002C3BB96795889400C0002C8BB800C0C4
:1016000010FF3BB9122FF110162F9B0D00C000C028
:10161000002C3BB900C000C0002C8BB800C017FFE5
:101620003BB922816627889400C000C0002C3BB9DA
:101630002111290D00C0002C8BB800C016FF3BB94A
:1016400008F42FEFE40FF51F00C000C0002C3BB9D9
:10165000E0FC620F00C0002C8BB800C015FF3BB946
:1016600067958894E1FC620F00C000C0002C3BB974
:101670006795889400C0002C8BB800C014FF3BB95C
:10168000E2FC620F6795889400C000C0002C3BB953
:10169000E3FC620F00C0002C8BB800C013FF3BB905
:1016A00067958894E4FC620F00C000C0002C3BB931
:1016B0006795889400C0002C8BB800C012FF3BB91E
:1016C000E5FC620F6795889400C000C0002C3BB910
:1016D000E6FC620F00C0002C8BB800C011FF3BB9C4
:1016E00067958894E7FC620F00C000C0002C3BB9EE
:1016F0006795889400C0002C8BB800C010FF3BB9E0
:10170000122FE110162F919400C000C0002C3BB99D
:101710009A0C00C000C08BB800C017FF3BB92181F4
:101720006627889400C000C0002C3BB92111280F07
:1017300000C0002C8BB800C016FF3BB908F42FEF97
:101740008195889400C000C0002C3BB970FD620FE9
:1017500000C0002C8BB800C015FF3BB9679588947A
:1017600071FD620F00C000C0002C3BB967958894E2
:1017700000C0002C8BB800C014FF3BB972FD620F93
:101780006795889400C000C0002C3BB973FD620FC0
:1017900000C0002C8BB800C013FF3BB9679588943C
:1017A00074FD620F00C000C0002C3BB9679588949F
:1017B00000C0002C8BB800C012FF3BB975FD620F52
:1017C0006795889400C000C0002C3BB976FD620F7D
:1017D00000C0002C8BB800C011FF3BB967958894FE
:1017E00077FD620F00C000C0002C3BB9679588945C
:1017F00000C0002C8BB800C010FF3BB9122F711134
:10180000162F8D0D00C000C0002C3BB9119709F0B8
:1018100086CE4A815B8120EE31E0DA010E943023DE
:10182000DC01CB01F4E0B695A79597958795FA95DD
:10183000D1F730E020E0B901EAE94E9F040E611DC6
:101840005E9F600D711D1124650F711D860F971F1E
:10185000A11DB11D893E43E09407A105B10508F41F
:1018600034C0885E9340A109B10942E0B695A795BE
:10187000979587954A95D1F747E0849F080E211DDB
:10188000949F200D311D1124290F311D6091D90124
:1018900070E0860F971F820F931F40912102509195
:1018A00022026091230270912402292F3327420FD4
:1018B000531F611D711D40932102509322026093BA
:1018C0002302709324028093D90178940E94FA0233
:1018D000F201708B6787DF91CF911F910F91FF907D
:1018E000EF90DF90CF90BF90AF909F908F907F90C0
:1018F0005F904F90089581E090E00895559A089583
:101900006F927F928F92CF92DF92EF92FF920F931E
:101910001F93CF93DF93CDB7DEB762970FB6F894DE
:10192000DEBF0FBECDBF6C017A013801822EDC0113
:101930001C962C91CA0157FF04C088279927841B45
:10194000950B7A8369839C838B839E838D836D86BD
:101950007E868F86213049F5CE0101960E947A0756
:1019600083E0888B1A8A198AF7FE02C08DEF888B74
:10197000D601ED91FC910684F785E02DBE016F5FE5
:101980007F4FC601099562960FB6F894DEBF0FBE71
:10199000CDBFDF91CF911F910F91FF90EF90DF901E
:1019A000CF908F907F906F9008951C861B861A862B
:1019B000198618861F82D4CFEF92FF920F931F9340
:1019C000CF93DF93CDB7DEB762970FB6F894DEBF43
:1019D0000FBECDBF7C01DC011C968C917A8369839C
:1019E0005C834B835E834D830D871E872F878130F9
:1019F000F9F4CE0101960E947A07188A1A8A198A88
:101A0000D701ED91FC910684F785E02DBE016F5F53
:101A10007F4FC701099562960FB6F894DEBF0FBEDF
:101A2000CDBFDF91CF911F910F91FF90EF9008955F
:101A30001C861B861A86198618861F82DECF0F9396
:101A40001F93CF93DF9301E010E0909114068091F3
:101A50001506492F481B550B9817F1F044305105D6
:101A600041F4109299051092980510935C0500932B
:101A70005B05C0919805D0919905CE010196909390
:101A80009905809398050E94D500CC0FDD1FC257A1
:101A9000DA4F99838883D9CFDF91CF911F910F912E
:101AA000089590E080E008954F925F926F927F9248
:101AB0008F929F92AF92BF92CF92DF92EF92FF925E
:101AC0000F931F93CF93DF9300D01F92CDB7DEB754
:101AD0006A0119821A821B828823C9F18B01E1E015
:101AE000F0E0482E512C712C612CD8012D918D01E4
:101AF000222349F17F01B1E0EB1AF108D601AE0DC6
:101B0000BF1D8C908820F9F030E050E040E02F5F5E
:101B10003F4F4F4F5F4FC301B2010E9400239B0113
:101B2000AC01912CB12CA12CC501B4016F5F7F4F8A
:101B30008F4F9F4F0E940023A1E0B0E0AC0FBD1F6C
:101B4000AE0DBF1D8C933196E430F10571F66981BD
:101B50007A818B810F900F900F90DF91CF911F9121
:101B60000F91FF90EF90DF90CF90BF90AF909F903C
:101B70008F907F906F905F904F900895FC018585C6
:101B8000968508950F931F93CF93DF9300D01F92F4
:101B9000CDB7DEB7AB0119821A821B82DC01ED9151
:101BA000FC910190F081E02D00E010E020E0BE010A
:101BB0006F5F7F4F09950F900F900F90DF91CF913E
:101BC0001F910F910895CF92DF92EF92FF920F93A2
:101BD0001F93CF93DF93EC01E62E98E0F92E03ECF0
:101BE00010E061E088810E94A902C8010197F1F725
:101BF000CE2CD12C60E0E0FE61E089810E94A90238
:101C0000C8010197F1F760E088810E94A902C8012C
:101C10000197F1F7D594C794EC2CFA94F110E1CF29
:101C200061E088810E94A90260E089810E94A90286
:101C3000C8010197F1F760E088810E94A902C801FC
:101C40000197F1F789810E943F02F82E811104C0AB
:101C500061E089810E94A90203EC10E0C8010197AC
:101C6000F1F761E088810E94A902C8010197F1F7AC
:101C700081E0F11001C080E0DF91CF911F910F91C1
:101C8000FF90EF90DF90CF9008950F931F93CF9325
:101C9000DF938C0161E0FC0181810E94A902C3EC09
:101CA000D0E0CE010197F1F760E0F80180810E9459
:101CB000A902CE010197F1F760E0F80181810E944D
:101CC000A9022197F1F7DF91CF911F910F9108950C
:101CD00061E0FC0181810E94A90283EC90E0019700
:101CE000F1F70895CF92DF92EF92FF920F931F9337
:101CF000CF93DF93EC01F62EC72EE42E122F0E9415
:101D0000680E60E4CE010E94E30DCE010E94450EF4
:101D1000CE010E94680E612F63706054CE010E9454
:101D2000E30DDF2C0F2D1C2DF80161918F01CE01E9
:101D30000E94E30D802F8D198E15B0F3CE010E9405
:101D4000450ECE010E94680E6A816058CE010E9445
:101D5000E30DCE01DF91CF911F910F91FF90EF9096
:101D6000DF90CF900C94450EAF92BF92CF92DF924E
:101D7000EF92FF920F931F93CF93DF9300D000D089
:101D8000CDB7DEB77C01F62FB72E80E6C82E81E0F6
:101D9000D82E8E010F5F1F4F9801E1E09FE3A92E1F
:101DA000D6017E916E916D018F2F9B2D0E941C2379
:101DB0006115710549F5411106C0EE2321F0822F0E
:101DC000801B8330F1F4D901AC922F5F3F4F88E53F
:101DD000C81681E0D80621F720E044E0B801C70129
:101DE0000E94720E0F900F900F900F90DF91CF9185
:101DF0001F910F91FF90EF90DF90CF90BF90AF9029
:101E00000895D9011C92E1CF6F70E62FF0E0E85BF6
:101E1000FE4F5081F9015083F82FB92EE0E0D5CF65
:101E2000FC0101900020E9F73197AF01481B590BE5
:101E3000BC0186E196E00C94090190930101809326
:101E40000001E9E6F0E080818C7F682B6083E89AEE
:101E500008950E944F2585ED8093BC008091EA058E
:101E60009091EB05A091EC05B091ED050796A11DB1
:101E7000B11D23E0B695A795979587952A95D1F73B
:101E80002091BC0024FD03C01092E8050895409104
:101E9000EA055091EB056091EC057091ED05452B3D
:101EA000462B472B69F30097A105B10541F02AE2C3
:101EB0002A95F1F700C00197A109B109E1CF8091FE
:101EC000E9050C946F041F920F920FB60F92112424
:101ED0002F933F934F935F936F937F938F939F9332
:101EE000AF93BF93EF93FF9386E196E00E94870143
:101EF000FF91EF91BF91AF919F918F917F916F91E2
:101F00005F914F913F912F910F900FBE0F901F90B7
:101F100018951F920F920FB60F9211242F938F9343
:101F20009F93EF93FF93E0912606F091270680811F
:101F3000E0912C06F0912D0682FD1BC090818091CE
:101F40002F068F5F8F7320913006821741F0E0914A
:101F50002F06F0E0EA5EF94F958F80932F06FF91F0
:101F6000EF919F918F912F910F900FBE0F901F9027
:101F700018958081F4CF1F920F920FB60F92112403
:101F80002F933F938F939F93AF93BF9380912102A1
:101F900090912202A0912302B0912402309120025C
:101FA00023E0230F2D3758F50196A11DB11D209375
:101FB00020028093210290932202A0932302B093E7
:101FC00024028091250290912602A0912702B091CF
:101FD00028020196A11DB11D80932502909326022F
:101FE000A0932702B0932802BF91AF919F918F9148
:101FF0003F912F910F900FBE0F901F90189526E8DC
:10200000230F0296A11DB11DD2CF1F920F920FB6C2
:102010000F9211242F933F934F935F936F937F936E
:102020008F939F93AF93BF93EF93FF93E091020140
:10203000F09103010995FF91EF91BF91AF919F91AD
:102040008F917F916F915F914F913F912F910F9061
:102050000FBE0F901F9018951F920F920FB60F9200
:1020600011242F933F934F935F936F937F938F939D
:102070009F93AF93BF93EF93FF93E0910001F09193
:1020800001010995FF91EF91BF91AF919F918F91C0
:102090007F916F915F914F913F912F910F900FBE64
:1020A0000F901F9018951F920F920FB60F92112448
:1020B0002F933F934F935F936F937F938F939F9350
:1020C000AF93BF93CF93DF93EF93FF9380911F0262
:1020D000C091C204D0E087FF24C010928500109206
:1020E000840080911F028F5F80931F0280911F02E6
:1020F000082E000C990B8C179D0724F480911F0269
:102100008C30C4F1809184009091850004968034D5
:102110009C4908F47AC080918400909185000496CF
:1021200076C080911F02082E000C990B8C179D071A
:10213000C4F6E0911F028E2FEE0F990BFC01EE0FFB
:10214000FF1FE80FF91FED53FB4F808186FFC9CFBA
:10215000E0911F028E2FEE0F990BFC01EE0FFF1F77
:10216000E80FF91FED53FB4F808160E08F730E94F1
:102170007B02B7CF2091840030918500E0911F024F
:102180008E2FEE0F990BFC01EE0FFF1FE80FF91FCA
:10219000ED53FB4F81819281820F931F90938900B1
:1021A00080938800E0911F028E2FEE0F990BFC01A7
:1021B000EE0FFF1FE80FF91FED53FB4F808186FFE5
:1021C00011C0E0911F028E2FEE0F990BFC01EE0F54
:1021D000FF1FE80FF91FED53FB4F808161E08F7304
:1021E0000E947B02FF91EF91DF91CF91BF91AF9160
:1021F0009F918F917F916F915F914F913F912F911F
:102200000F900FBE0F901F90189580E49CE990935B
:102210008900809388008FEF80931F02E3CF1F9285
:102220000F920FB60F9211242F933F934F935F930A
:102230006F937F938F939F93AF93BF93EF93FF938E
:102240008091B900887F803609F44AC0F0F5883261
:1022500009F4A7C018F5803109F49BC0B8F48823AD
:1022600009F4F9C0883009F494C0FF91EF91BF914F
:10227000AF919F918F917F916F915F914F913F911E
:102280002F910F900FBE0F901F901895883109F471
:1022900088C0803251F78093E60514C0803409F479
:1022A0009DC040F48033B9F38833F9F68093E60596
:1022B00085ECB0C0803509F485C0883509F496C036
:1022C000883499F60E942B0FD0CF883909F48CC03E
:1022D00038F5883729F050F4883611F0803729F620
:1022E00083E08093E80510921E0257C0883809F4F5
:1022F0007BC0803919F0803809F0B7CF80911E0279
:10230000803208F071C0E0911E0281E08E0F809350
:102310001E028091BB00F0E0E250FE4F80833DC082
:10232000803B39F0E0F4803A09F479C0883A09F04A
:102330009CCF84E08093E8051092FD011092FC018F
:10234000E0911006F091110609958091FC01811130
:102350000FC081E08093FC011092DC0109C0803C39
:1023600009F4A6CF883C09F4A3CF883B09F07DCFC0
:10237000E091FD0181E08E0F8093FD01F0E0E452D9
:10238000FE4F80818093BB009091FD018091FC0104
:1023900029C08091E3058093BB0085EC8093BC004D
:1023A00064CF9091E5058091E405981758F5E09188
:1023B000E50581E08E0F8093E505F0E0EE53FA4FDE
:1023C0008081E9CFE091E50581E08E0F8093E505FE
:1023D0008091BB00F0E0EE53FA4F80839091E505C9
:1023E0008091E4059817C8F285E8D8CFE091E5051B
:1023F00081E08E0F8093E5058091BB00F0E0EE5305
:10240000FA4F80838091E70581115CCF81E0809352
:10241000E20584EA8093BC001092E80526CF85ECA3
:102420008093BC001092E80580911E02803230F447
:10243000E0911E02F0E0E250FE4F108260911E0219
:1024400070E0E0910E06F0910F068EEF91E0099595
:1024500010921E020ACF1092E60534CF1F920F92FF
:102460000FB60F9211242F933F934F935F936F9367
:102470007F938F939F93AF93BF93EF93FF93E091DD
:10248000EB04F091EC040995FF91EF91BF91AF91AE
:102490009F918F917F916F915F914F913F912F917C
:1024A0000F900FBE0F901F9018951F920F920FB6AE
:1024B0000F9211242F933F934F935F936F937F93CA
:1024C0008F939F93AF93BF93EF93FF9380912D02D0
:1024D0000E943F0220912F02309130022F5F3F4F28
:1024E0003093300220932F029091890490912E0214
:1024F000933009F443C098F49230C9F0FF91EF9102
:10250000BF91AF919F918F917F916F915F914F910B
:102510003F912F910F900FBE0F901F901895943000
:1025200009F447C0953051F7882351F0E7CF811166
:10253000E5CF80912F02909130028436910528F4E6
:102540001092300210922F02D9CF10928904E0919C
:10255000890481E08E0F80938904F0E080912F023E
:1025600090913002EE0FFF1FEF5CFD4F918380834F
:102570001092300210922F0283E018C0813009F0CF
:10258000BDCFE09189048E0F80938904F0E08091A3
:102590002F0290913002EE0FFF1FEF5CFD4F9183F1
:1025A00080831092300210922F0284E080932E02DA
:1025B000A5CF882361F280912F0290913002853659
:1025C000910508F49BCF85E0F1CF1F920F920FB6D3
:1025D0000F9211240F931F932F933F934F935F9369
:1025E0006F937F938F939F93AF93BF93CF93EF930B
:1025F000FF93C091CA01C13081F482E00E943F0282
:102600008C0183E00E943F0280179107D4F4C093AD
:10261000CC06C093CD061092CA01FF91EF91CF91E5
:10262000BF91AF919F918F917F916F915F914F91EA
:102630003F912F911F910F910F900FBE0F901F9000
:10264000189582E00E943F028C0183E00E943F02C5
:102650000817190714F71092CC06DBCFCF92DF9240
:10266000EF92FF920F931F93E82FF92F05C00150AF
:1026700011092109310961F1908196239417B9F369
:1026800005C0015011092109310911F190819623EA
:102690009413F7CFC12CD12CE12CF12C0AC08FEF71
:1026A000C81AD80AE80AF80A0C151D052E053F05B8
:1026B00079F080818623841791F36C2D7D2D8E2DEA
:1026C0009F2D1F910F91FF90EF90DF90CF90089575
:1026D00060E070E080E090E01F910F91FF90EF903C
:1026E000DF90CF900895FC0182E191E09183808397
:1026F000138212828FEF8683878380878187828708
:10270000838781E0848716861586158214828091DE
:10271000BC049091BD04892B21F4F093BD04E09397
:10272000BC04A091CB01B091CC01109721F015967B
:10273000FC93EE931497F093CC01E093CB010895B2
:10274000EF92FF920F931F93CF93DF938C01D62FBD
:10275000C8E08BE4E82EF12CF801818161E0D7FF1D
:1027600060E00E947B0260E0F80180810E947B02B1
:10277000C7010197F1F761E0F80180810E947B02B7
:10278000C7010197F1F7DD0FC15031F7DF91CF910C
:102790001F910F91FF90EF9008959F92AF92BF927B
:1027A000CF92DF92EF92FF920F931F93CF93DF931D
:1027B000EC01E62ED42EC22E60E00E94A01360E051
:1027C000CE010E94A01360E0CE010E94A01360E041
:1027D000CE010E94A01310E083E0B82E8A81181762
:1027E00008F046C01B9D90011124A9014F5F5F4F67
:1027F000B9016E5F7F4F1E110FC0EB81FC81E20FAC
:10280000F31FD082EB81FC81E40FF51FC082EB81C6
:10281000FC81E60FF71F00838B819C81680F791F75
:10282000FB01F080480F591FFA019080820F931F1F
:10283000FC01A08060ECF7FE60EEF6FE606197FEA2
:10284000686096FE6460A7FE6260A6FE6160CE01CD
:102850000E94A0136F2DCE010E94A013692DCE01FE
:102860000E94A0136A2DCE010E94A0131F5FB6CF55
:1028700060E0CE010E94A01360E0CE010E94A01390
:1028800060E0CE010E94A01360E0CE01DF91CF9105
:102890001F910F91FF90EF90DF90CF90BF90AF907E
:1028A0009F900C94A013CF93DF93EC0188819981C2
:1028B000009711F00E940924198218821D821C823F
:1028C0001B821A82DF91CF9108950F931F93CF93AC
:1028D000DF93EC0188819981009759F02A813B812F
:1028E0002617370730F081E0DF91CF911F910F91CC
:1028F00008958B016F5F7F4F0E949224009759F0DB
:10290000998388831B830A832C813D81232B59F76C
:10291000FC011082E8CF80E0E7CF0F931F93CF93A5
:10292000DF93EC01862F688349832A8361E00E944C
:10293000A90261E089810E94A9028A8161E070E0B8
:1029400023E0829FC00111240E9451239C838B832A
:1029500010E08A81181748F400E020E040E0612F81
:10296000CE010E94CD131F5FF4CFDF91CF911F9155
:102970000F910895E6E1F6E01382128288EE93E06B
:10298000A0E0B0E084839583A683B78324E631E09A
:102990003183208325EC30E03587248724EC30E038
:1029A0003787268720EC30E0318B208B21EC30E01C
:1029B000338B228B22EC30E0358B248B26EC30E0FD
:1029C000378B268B118E128E138E148EE3EBF6E06E
:1029D0002FEF208312821182148613864FEF5FEF50
:1029E000BA014783508761877287E0ECF6E0138273
:1029F000128284839583A683B78386E791E09183CF
:102A0000808384E0809368008BB381718BBB8CE002
:102A100080936D000895CF93DF93CDB7DEB7A29773
:102A20000FB6F894DEBF0FBECDBF789484B5826038
:102A300084BD84B5816084BD85B5826085BD85B562
:102A4000816085BD80916E00816080936E001092E0
:102A5000810080918100826080938100809181005B
:102A600081608093810080918000816080938000EC
:102A70008091B10084608093B1008091B00081604A
:102A80008093B00080917A00846080937A00809176
:102A90007A00826080937A0080917A0081608093CE
:102AA0007A0080917A00806880937A001092C10049
:102AB000E0912606F091270682E08083E0912206CD
:102AC000F09123061082E0912406F091250680E122
:102AD000808310922E06E0912A06F0912B0686E064
:102AE0008083E0912806F0912906808180618083AF
:102AF000E0912806F0912906808188608083E0912A
:102B00002806F0912906808180688083E09128065C
:102B1000F091290680818F7D80830E94580488E08F
:102B20008093BA008FE19DE090932A02809329025E
:102B30008AED96E090932C0280932B0261E070E086
:102B40008AEA93E00E941D0F84E891E00E94100F32
:102B50009E012F5F3F4F490180910A0190910B0127
:102B6000A0910C01B0910D018F8F98A3A9A3BAA3D6
:102B700044244394512C1AE0212E312C8091980545
:102B800090919905049769F580918E0590918F0534
:102B90008631910509F088C08091900580932D02BF
:102BA000F89412E01093B0001093B10084E6809383
:102BB000B3001092B20010937000789410932E021C
:102BC0001092890480912D0260E00E94A90264E1C4
:102BD00070E080E090E00E941F0310932E0210929C
:102BE000890480910C0590910D05892BC9F10E94F3
:102BF0005103009108051091090520910A053091B3
:102C00000B05601B710B820B930B613375478105BC
:102C1000910530F150920705409206058091F40429
:102C20009091F504A091F604B091F7048093020509
:102C300090930305A0930405B09305051092F40446
:102C40001092F5041092F6041092F7040E945103BA
:102C5000609308057093090580930A0590930B050E
:102C60008091000590910105892B11F40C94562157
:102C70008091CD06813011F00C9456218091F204A0
:102C80009091F3042091CC06213011F00C94AE21E8
:102C900001968931910514F00C9449219093F30425
:102CA0008093F2040C944D218531910509F064C0A4
:102CB00081E392E090938B0580938A0520918904AB
:102CC00030E030938D0520938C0580912E02853065
:102CD00009F087CF82E080932E021092890420347D
:102CE00031056CF0590194E0A91AB1083501A7E04B
:102CF0006A2277246114710411F40C94B72182E0E4
:102D000080932E026CCFAD010C94DB21809587233C
:102D10000C94262285E08A0D8093750580913302FC
:102D2000909134028093760580913502909136021D
:102D3000809377050093780560937905A0927A05D2
:102D400082E080932E021092890481E080936005D6
:102D5000E0E6F5E029E835E031962417350739F447
:102D600084E190E090935F0580935E053ACFDA01AD
:102D70008D91AD018083F0CF8130910539F4809140
:102D800090050E943F0280935D052BCF8230910514
:102D900039F460919205809190050E947B0221CFC9
:102DA0008330910591F4809190050E94E5029C0189
:102DB00097FF02C021503F4F3093610560E071E002
:102DC0000E941C23809362050CCF8430910509F08A
:102DD0005BC00091920510919305E0909005F090F2
:102DE000910561E08E2D0E94A9020115110519F4CB
:102DF00060E08E2DD2CF0F3F110511F461E0F9CFC5
:102E0000F701FF27E458FF4FE491E33019F140F454
:102E1000E130B1F0E230C9F0003811057CF7E8CFBD
:102E2000E73011F1E83041F1E430B1F780918000F2
:102E300080628093800010938B0000938A00D1CE33
:102E400084B5806884BD07BDCCCE84B5806284BD66
:102E500008BDC7CE80918000806880938000109369
:102E6000890000938800BDCE8091B0008068809377
:102E7000B0000093B300B5CE8091B0008062809323
:102E8000B0000093B400ADCE8530910539F4609167
:102E90009205809190050E94A902A3CE87309105EA
:102EA00009F06DC080915B0590915C05892B09F458
:102EB00098CE009190051091910510935A050093BA
:102EC000590561E0802F0E94A90260E0802F0E94D6
:102ED0007B0283E090E00197F1F761E0802F0E9490
:102EE0007B028FE090E00197F1F760E0802F0E9475
:102EF0007B0260E0802F0E94A90261E0802F0E9487
:102F00007B021127F801E255FF4F6491F801E65664
:102F1000FF4FE491F0E0EE0FFF1FE057FF4F859168
:102F2000949100E412E42FE030E0462F0E942E132B
:102F30006B017C01C114D104E104F10439F0BFEF4D
:102F4000CB1ADB0AEB0AFB0AEFE0FE22C701B6014F
:102F500020E03AE340E050E00E94662220935705CB
:102F6000C701B6012AE330E040E050E00E9466224B
:102F70002093580510925C0510925B0532CE883084
:102F8000910551F481E08093610582E080936205B0
:102F900086E08093630525CE8431910509F0A4C0B5
:102FA0008091550581110FC060E087E00E94BB064B
:102FB00060E088E00E94BB0661E087E00E94BB06FB
:102FC00081E08093550580E48B838A8389830E9406
:102FD00051036B017C018091140690911506891BA9
:102FE000990B18161906B4F40E9451036C197D0947
:102FF0008E099F09653F71408105910564F38091B9
:1030000052058093610580915305809362058091FC
:103010005405BFCF0E94D50063E08CE40E94900469
:10302000B82E10921506809314060E9451036B016E
:103030007C01840180911506B81659F1C8018819E0
:1030400099090397C4F40E9451036B017C01D801D4
:103050008C91803480F00E94D500F80180830E941A
:1030600051036C197D098E099F0963337105810530
:1030700091056CF3C4CF0E9451030F5F1F4F6C1971
:103080007D098E099F09653F71408105910594F284
:10309000B6CF298144E0249F90011124822F27FF7D
:1030A00002C083E0820F85958595809352052A8121
:1030B00054E0259F90011124822F27FF02C083E056
:1030C000820F85958595809353052B8184E0289FF9
:1030D00090011124822F27FF02C083E0820F859583
:1030E0008595809354058BCF8E31910509F092C060
:1030F00080915105811105C00E94580481E08093A0
:10310000510581E08093A00588E68093C105109267
:1031100013061092120660E080EC96E00E948C0686
:1031200081E00E945F0567E088E60E9490041092AB
:103130001506809314060E94D500982F92959770DB
:103140001AE08F70919F800D1124809349050E9491
:10315000D500982F92959F708F70919F800D1124AC
:1031600080934A050E94D500982F929593708F7096
:10317000919F800D112480934B050E94D500982FBC
:1031800092959F708F70919F800D112480934C05B4
:103190000E94D500982F92959F708F70919F800DFF
:1031A000112480934D050E94D500982F92959F7011
:1031B0008F70919F800D112480934E050E94D50041
:1031C000982F92959F708F70919F800D1124282FBA
:1031D00030E03093500520934F0590914B0590932C
:1031E000610590914A0590936205909149059093ED
:1031F000630590914E059093640590914D059093D1
:103200006505809366059093670580914C058093D2
:103210006805E7CC8E36910509F0AAC08091470574
:1032200090914805892B09F0DCCC80915B05909149
:103230005C05892B09F4D5CC8BE891E00E94100F36
:10324000009194051091950510934605009345054E
:103250000B3A9AE2190708F04AC0C801880F991F73
:10326000800F911F009709F445C00E946D237C01D7
:103270009093480580934705809190059091910522
:1032800083309105D1F580919B04811111C08AE8AA
:1032900094E00E94731310929A041092990484E2AD
:1032A00091E090938B0480938A0481E080939B0447
:1032B0008AE894E00E94180AF0928D04E0928C044F
:1032C00010939804009397048091B6069091B706E6
:1032D000A091B806B091B906843CE9E09E07A1052B
:1032E000B105E8F584EC99E0A0E0B0E038C08FEFDC
:1032F0009FEFBBCF81E090E0B8CF059709F03ACEC1
:103300008091B404811111C083EA94E00E94731388
:103310001092B3041092B20488E391E09093A40455
:103320008093A30481E08093B40483EA94E00E9434
:103330007E0CF092A604E092A5041093B1040093D1
:10334000B0048091B6069091B706A091B806B091EE
:10335000B906843CF9E09F07A105B10518F28093F6
:10336000B6069093B706A093B806B093B90602CEFE
:103370008037910509F0A6C18091470590914805D5
:10338000892B09F42ECCC0909205CA8E198EE0903C
:103390009405F0909505C98CDA8CEC28FD281092E4
:1033A00044051092430519821A821B828091B60649
:1033B0009091B706A091B806B091B906892B8A2BD7
:1033C0008B2BD9F00E94FA020091BE041091BF0429
:1033D0002091C0043091C104601B710B820B930BD0
:1033E0000091B6061091B7062091B8063091B90643
:1033F0006017710782079307C8F20E94FA02609370
:10340000BE047093BF048093C0049093C104E09104
:10341000BE06F091BF06712C309759F04091BA0664
:103420005091BB066091BC067091BD0680E0099585
:10343000782EC090BC04D090BD04C114D10461F1B9
:10344000D6011C966C901C978091B4069091B5069D
:103450008436910510F41C961C92D601ED91FC91D6
:10346000A080B180A601475F5F4FB6016A5F7F4FC2
:10347000872D0E94540DF601458556858B01282F16
:10348000B401C601F5010995D6011C966C921C97F2
:103490001496CD90DC90D1CF80919A0590919B05A8
:1034A0009C012F5F3F4F30939B0520939A054997CE
:1034B00014F00E945D030091BC041091BD0401153D
:1034C000110509F09EC00091450510914605A09197
:1034D0004305B0914405E0914705F091480567E048
:1034E00070E050E040E0AE1BBF0BDD24DA9485EACB
:1034F000B82E98EFC92E20E8A22E9D012E0F3F1F57
:103500004017510724F44530510509F08DC0309320
:10351000440520934305B090B3068091B606909180
:10352000B706A091B806B091B906892B8A2B8B2BD0
:10353000D9F00E94FA020091BE041091BF042091BC
:10354000C0043091C104601B710B820B930B00917E
:10355000B6061091B7062091B8063091B9066017EB
:10356000710782079307C8F20E94FA026093BE04B3
:103570007093BF048093C0049093C104E091BE0691
:10358000F091BF06309759F04091BA065091BB06B2
:103590006091BC067091BD068B2D0995B82EE09008
:1035A000BC04F090BD04E114F10409F47AC0F70101
:1035B000A4848091B4069091B5068436910508F4F0
:1035C0001486D701ED91FC91C280D380A701475F9B
:1035D0005F4FB7016A5F7F4F8B2D0E94540D8B01A7
:1035E000282FF7014585568562817381C701F60151
:1035F0000995D7011C96AC921C971496ED90FC90FF
:10360000D2CFF80182819381009749F025853685D4
:10361000B901660F771F620F731F0E94E800D8017F
:1036200014960D911C914BCFC70186239723022E30
:1036300002C0959587950A94E2F78130910561F46F
:103640001082A182128233E0660F771F3A95E1F76C
:103650004F5F5F4F339651CF8230910519F4D0827E
:103660001182F0CF8330910519F4D082D182EACF54
:103670008430910521F410821182D282E4CF85300A
:10368000910519F4C082C182F8CF8630910519F4F2
:10369000D082B182D7CF079709F039CF1082D1827B
:1036A000ECCF80919A0590919B059C012F5F3F4F35
:1036B00030939B0520939A0549970CF492CA0E9477
:1036C0005D038FCA8F36910519F58091470590915A
:1036D0004805892B09F485CA80915B0590915C05AA
:1036E000892B09F47ECA84E991E00E94100F809131
:1036F000470590914805009711F00E940924109207
:10370000480510924705109246051092450532CCA7
:103710008837910509F091C080914105909142054B
:10372000892B09F05ECA80915B0590915C05892B1D
:1037300009F457CA80EA91E00E94100F83E090E0FC
:103740000E946D238C018091C2048C3008F071C0FE
:1037500091E0980F9093C204F801808390E0FC01FF
:10376000EE0FFF1FE80FF91FED53FB4F88EB9BE0B7
:10377000928381831093420500934105F801808173
:103780008C3008F0F7CBF090900561E08F2D0E940F
:10379000A902D8018C91282F30E0F901EE0FFF1F0C
:1037A000E20FF31FED53FB4FBF2DBF73FB2E908134
:1037B000907CF92AF082F801118212822CE0622FAB
:1037C0000E941023829FB001112430E020E0AB0161
:1037D000420F531FFA01EE0FFF1FE40FF51FED53C9
:1037E000FB4F908196FD16C02F5F3F4F2C30310567
:1037F00071F781110FC01092800082E080938100E8
:103800001092850010928400B19A80916F008260BE
:1038100080936F00D801EC918E2F90E0FC01EE0FA9
:10382000FF1FE80FF91FED53FB4F808180648083F9
:10383000A1CB8FEFD8018C939DCF8937910559F596
:103840008091410590914205892B09F4CAC9809164
:103850005B0590915C05892B09F4C3C98EEA91E060
:103860000E94100F8091410590914205DC01EC917E
:103870002E2F30E0F901EE0FFF1FE20FF31FED5383
:10388000FB4F20812F7B20830E9409241092420548
:10389000109241056FCB8A37910509F006C18091DE
:1038A000410590914205892B09F49BC980919205AD
:1038B000909193051C8A1B8A1E8A1D8A188E1F8A66
:1038C0004AE0B4010E943122F40101900020E9F79E
:1038D00031978F0108191909B801CE0143960E944A
:1038E00065148111BEC0CE0143960E9453141A8202
:1038F00019821C821B821E821D826CE070E0C40152
:103900000E9465148111B5C0C4010E945314EB8854
:10391000FC88E114F10409F4B7C00F89188D011572
:103920001105B1F08D819E81080F191FB801C401E6
:103930000E946514882309F4A7C029813A818D81EA
:103940009E81B701820F931F0E9464251E830D8301
:103950000D811E810F5F1F4FB801C4010E946514C5
:10396000811196C0C4010E9453144D815E8169810A
:103970007A8186E196E00E94090189819A81009707
:1039800011F00E9409248B899C89009711F00E94F4
:103990000924A0919205B0919305A53BB10508F0CB
:1039A00020C9E0914105F0914205F0809BE0C92ECD
:1039B000CF1408F44FC0828118E5C12E12E0D12E39
:1039C000C81AD10887FDD3943601660C771C660CA3
:1039D000771C818108E810E0081B110987FD139509
:1039E000000F111F000F111F5801012E000CCC08F1
:1039F000DD089301072C000C440B550B2A193B09D9
:103A00004C095D090E94902224EB30E040E050E038
:103A10000E946622BA01A9014A0D5B1D6C1D7D1D25
:103A2000401751072CF08301461557050CF48A0105
:103A300002501109000F111F2FB7F8948F2D90E03D
:103A4000FC01EE0FFF1FE80FF91FED53FB4F128330
:103A500001832FBF6FE070E080E090E00E941F03C1
:103A6000C0C8188F0F8BB4018B899C890E94642574
:103A70003ECF8CE090E09E838D836CEB71E089817A
:103A80009A810E94642543CFC4010E94531460CFE1
:103A900029813A818D819E816EE971E0820F931FA9
:103AA0000E9464251E830D8360CF8634910529F51D
:103AB00080919005909191059C01225031098901D6
:103AC000000F111F020F131F015D1A4FD8018C93B5
:103AD00091E0980F11969C9360E00E94A90260E02B
:103AE000F80181810E94A90260E0D8018C910E94B6
:103AF0007B0260E0F801818150C987349105C1F4EF
:103B000080919005909191050297FC01EE0FFF1FA7
:103B1000E80FF91FE15DFA4F8081882309F461C83D
:103B200080919205883008F087E0885F828359C8C9
:103B30008834910511F5209190053091910522501E
:103B40003109C901880F991F820F931F815D9A4F18
:103B5000DC012C91222309F444C8B0919405BC8F58
:103B60001B8E6091920570919305CB8CDC8C6C253B
:103B70007D2540E00E94B40E34C88934910501F5DA
:103B8000209190053091910522503109C901880F8B
:103B9000991F820F931F815D9A4FDC012C91222384
:103BA00009F41FC8B0919405BE8F1D8E60919205D7
:103BB00070919305CD8CDE8C6C257D2541E0DACFAC
:103BC0008A34910511F580919005909191050297A5
:103BD0009C01220F331F820F931F815D9A4FDC01DE
:103BE0002C91222311F40C94F115E0919405EF70BF
:103BF000F0E0E85BFE4F208129832091920541E0AF
:103C0000B4010E94720E0C94F1158B349105B1F43D
:103C1000209190053091910522503109C901880FFA
:103C2000991F820F931F815D9A4FFC0120812223EF
:103C300011F40C94F11520919405DECF8C3491058C
:103C400009F043C0009190051091910502501109AF
:103C5000C801880F991F080F191F015D1A4FD8015D
:103C60008C91882311F40C94F11580919205909118
:103C70009305B1010E941C236F70E62FF0E0E85B12
:103C8000FE4F908199838F70E82FF0E0E85BFE4F44
:103C9000808180688A838091940590919505B10117
:103CA0000E941C236F70E62FF0E0E85BFE4F9081CE
:103CB0009B838F70E82FF0E0E85BFE4F80818C8360
:103CC00020E044E0B401C8019CCF8D349105B1F5EA
:103CD000009190051091910502501109C801880FBB
:103CE000991F080F191F015D1A4FF8018081882361
:103CF00011F40C94F115B0909205C0909405D090F9
:103D00009505CC0CDD1CCC0CDD1CF12CE12CEC144D
:103D1000FD0414F00C94F1158B2D0E94E50240E097
:103D2000BC01C8010E94B40E6AEF70E080E090E030
:103D30000E941F03FFEFEF1AFF0AE9CF8E349105AF
:103D4000F1F4209190053091910522503109C9017B
:103D5000880F991F820F931F815D9A4FDC012C9170
:103D6000222311F40C94F1152F8D38A149A15AA1E9
:103D700029833A834B835C8320E044E041CF8F3436
:103D80009105C1F42091900530919105225031099F
:103D9000C901880F991F820F931F815D9A4FDC0123
:103DA0002C91222311F40C94F11519821A821B8292
:103DB0001C82E2CF8A359105A9F480915B05909130
:103DC0005C05892B11F40C94F1158091900580937A
:103DD0002C058091920580932D0580919405809308
:103DE0002E05C8C88B359105F1F480915B05909143
:103DF0005C05892B11F40C94F1156091900570917C
:103E0000910541E0460F9B012250310955E0529F38
:103E1000C001539F900D112420919205825F9A4F0B
:103E20000E948D14A7C88C35910509F049C0809176
:103E30005B0590915C05892B11F40C94F115609150
:103E40009005709191059B012250310945E0429FF8
:103E5000C001439F900D1124FC01E25FFA4F6F01F6
:103E6000A0909205B090930541E0460F2A2DCF0116
:103E70000E948D1480919405909195059C01359533
:103E80002795359527952170722E71949C01359553
:103E900027952170622E6194182F11701195F12CC5
:103EA000E12CEA14FB040CF065C8012F262D472DE8
:103EB0006E2DC6010E94CD13FFEFEF1AFF0AF1CF5E
:103EC0008D35910509F065C080915B0590915C0589
:103ED000892B11F40C94F115A0909205B0909305E4
:103EE0008091900590919105029745E0489F90013F
:103EF000499F300D1124A901425F5A4F6A01A11454
:103F0000B10461F400912E0520912D0540912C05FE
:103F100060919405C6010E94CD132CC8DA01129657
:103F20006C90F12CE12C712CE614F7040CF022C8F3
:103F3000B1E0AB16B10459F48091940590919505C8
:103F4000E816F90679F42FEFE21AF20AEDCFE2E073
:103F5000AE16B10491F480919405909195058E155B
:103F60009F058CF300912E0520912D0540912C0585
:103F70006E2DC6010E94CD13E6CFF3E0AF16B1045B
:103F800011F78091940590919505E816F906DCF2F9
:103F9000E9CF8E35910509F049C080915B0590917C
:103FA0005C05892B11F40C94F11580919405909186
:103FB00095051816190624F050929505409294051F
:103FC0008091900590919105029745E0489F90015E
:103FD000499F300D1124A901425F5A4F6A01DA014D
:103FE0001296AC9060909205709093057301B12C7D
:103FF000EA14FB0414F00C94BA17609194057091C4
:104000009505C701861997090E941C23892B51F435
:1040100000912E0520912D0540912C056E2DC60195
:104020000E94CD13BFEFEB1AFB0AE2CF8F3591054B
:1040300009F05FC080915B0590915C05892B11F4BC
:104040000C94F11580919005909191050297C09084
:104050009405D090950545E0489F9001499F300D0B
:104060001124F901E25FFA4F7F01A280B12CC11443
:10407000D104E9F4CA14DB0414F00C94BA1780914B
:1040800092059091930500912E0520912D05409168
:104090002C05C816D9061CF000E020E040E06C2D8D
:1040A000C7010E94CD13FFEFCF1ADF0AE3CF6501EE
:1040B000C114D10411F40C94BA1780919205909117
:1040C00093059501281B390BC90100912E052091FC
:1040D0002D0540912C05C816D9061CF400E020E0FF
:1040E00040E06C2DC7010E94CD1331E0C31AD10806
:1040F000DFCF8E309105D1F461E070E08AEA93E081
:104100000E941D0F50920D0540920C050E94510314
:10411000609308057093090580930A0590930B0539
:1041200010928F0510928E050C94F1158F30910529
:1041300061F4E8984EEF50E0509301014093000184
:1041400010920D0510920C05EBCF8A30910541F5C8
:1041500080915B0590915C05019711F00C94F1152D
:10416000809106058093600580910205909103057A
:10417000A0910405B091050580936105492F5A2F40
:104180006B2F772740930205509303056093040536
:104190007093050540936205A09363050C94BA17CC
:1041A00080319105C1F51092800080E180938100FB
:1041B00031E03093E9048FB78093EA04F89480E407
:1041C0009FE19093E8048093E704909387008093A5
:1041D00086008091EA048FBF80918100887F809360
:1041E0008100909181002091E904922B90938100AD
:1041F000A8E6B2E0B093EC04A093EB0430936F0018
:1042000080918100822B80938100789450920105E7
:104210004092000585CF8131910559F480916F005E
:104220008E7F80936F0010920105109200050C9410
:10423000F11582319105E9F460E082E00E94A90263
:1042400063E070E084EF90E00E941D0F1092FF0485
:104250001092FE040E9451036093FA047093FB04D1
:104260008093FC049093FD045092F9044092F8046A
:1042700057CF0D9711F00C94F1151092F90410928C
:10428000F804E898EEEFF0E0F0930101E09300010C
:1042900047CF1092F3041092F20481E08093F0046F
:1042A0008091F2048093F1041092CD068091F8047D
:1042B0009091F904892B09F441C00E9451030091A7
:1042C000FA041091FB042091FC043091FD04601B62
:1042D000710B820B930B613D77408105910570F165
:1042E0008091FE049091FF044EE1489F9001499F08
:1042F000300D112481E08093ED04C90169E470E080
:104300000E941C23CB0160E071E00E941C2380937B
:10431000EE04C90160E079E40E941C236093EF047D
:104320001092FF041092FE040E9451036093FA045D
:104330007093FB048093FC049093FD0480E090E074
:10434000892B11F40C94BE150E947301882311F47B
:104350000C94B8150E9400000C94B815019797FDB5
:1043600002C00C944E1688E190E00C944E1684E046
:10437000B594A7948A95E1F750E040E090E080E0A2
:10438000DA01A95CBD4F6D917C91860F971F4C5F40
:104390005F4F48325105A1F7B1010E941C238B01E8
:1043A0007B01EE0CFF1C46E050E070E060E090E026
:1043B00080E029503109DA01AA0FBB1FA35DBD4F70
:1043C000CD90DC901197EC14FD0438F40D90BC9165
:1043D000A02D8A0F9B1F6F5F7F4F6A30710539F0E8
:1043E000DA0112964217530714F40C9483160E94B4
:1043F0001C2345E755E0DA01CD01855795408A1524
:104400009B0514F00C948A1616961C92169727E0BA
:1044100030E0C901880F991FF301E81BF90BCF01A8
:10442000880F991F8B5A9D4FFC01C080D180C2011B
:10443000022E01C0880F0A94EAF716967C9116970F
:10444000EC14FD0410F00C948616872B16968C93B2
:10445000169721503109E8F6119620E1620E711C81
:10446000CBCFBB274A3031F4992322F4BDE290959B
:1044700081959F4F0C943D22BB27FB015527AA270E
:10448000880F991FAA1FA41710F0A41B83955051E1
:10449000B9F7A05DAA3308F0A95DA193009779F759
:1044A000B111B1931192CB010C945622DC01FC01A5
:1044B000672F71917723E1F7329704C07C916D9358
:1044C00070836291AE17BF07C8F30895052E97FB5E
:1044D0001EF400940E947D2257FD07D00E94CF2237
:1044E00007FC03D04EF40C947D22509540953095F6
:1044F00021953F4F4F4F5F4F089590958095709550
:1045000061957F4F8F4F9F4F08950E94F122A59F85
:10451000900DB49F900DA49F800D911D11240895BE
:10452000B7FF0C9485220E948522821B930B08956D
:104530002F923F924F925F926F927F928F929F92B3
:10454000AF92BF92CF92DF92EF92FF920F931F93A1
:10455000CF93DF93CDB7DEB7CA1BDB0B0FB6F89452
:10456000DEBF0FBECDBF09942A88398848885F8492
:104570006E847D848C849B84AA84B984C884DF8003
:10458000EE80FD800C811B81AA81B981CE0FD11DE7
:104590000FB6F894DEBF0FBECDBFED010895A1E2C6
:1045A0001A2EAA1BBB1BFD010DC0AA1FBB1FEE1FAD
:1045B000FF1FA217B307E407F50720F0A21BB30BF8
:1045C000E40BF50B661F771F881F991F1A9469F774
:1045D00060957095809590959B01AC01BD01CF01D0
:1045E0000895A29FB001B39FC001A39F700D811DCC
:1045F0001124911DB29F700D811D1124911D0895EC
:10460000DB018F939F930E948522BF91AF91A29F60
:10461000800D911DA39F900DB29F900D11240895C0
:10462000991B79E004C0991F961708F0961B881F04
:104630007A95C9F78095089597FB072E16F4009494
:1046400007D077FD09D00E94372307FC05D03EF440
:10465000909581959F4F0895709561957F4F08952E
:104660000E94F122B7FF0895821B930B0895AA1BA5
:10467000BB1B51E107C0AA1FBB1FA617B70710F04D
:10468000A61BB70B881F991F5A95A9F7809590957F
:10469000BC01CD010895EE0FFF1F0590F491E02DB0
:1046A00009940F931F93CF93DF93869F8001879F79
:1046B000100D969F100D1124C8010E946D23EC016E
:1046C000009729F0A80170E060E00E945D25CE010E
:1046D000DF91CF911F910F9108950F931F93CF9367
:1046E000DF938230910510F482E090E0E091D006F3
:1046F000F091D10630E020E0B0E0A0E0309799F4EE
:104700002115310509F44AC0281B390B2430310525
:10471000D8F58A819B816115710589F1FB0193832D
:104720008283FE0111C040815181028113814817AB
:104730005907E0F04817590799F4109761F012965D
:104740000C93129713961C933296CF01DF91CF9161
:104750001F910F9108950093D0061093D106F4CFC6
:104760002115310551F04217530738F0A901DB013B
:104770009A01BD01DF01F801C1CFEF01F9CF90939C
:10478000D1068093D006CDCFFE01E20FF31F8193B7
:1047900091932250310939832883D7CF2091CE06B7
:1047A0003091CF06232B41F420910601309107016F
:1047B0003093CF062093CE0620910401309105015D
:1047C0002115310541F42DB73EB7409108015091B4
:1047D0000901241B350BE091CE06F091CF06E217BC
:1047E000F307A0F42E1B3F0B2817390778F0AC0114
:1047F0004E5F5F4F2417350748F04E0F5F1F5093F1
:10480000CF064093CE06819391939FCFF0E0E0E0F6
:104810009CCFCF93DF930097E9F0FC01329713828E
:104820001282A091D006B091D106ED0130E020E0D7
:104830001097A1F420813181820F931F2091CE0621
:104840003091CF062817390709F061C0F093CF06E1
:10485000E093CE06DF91CF910895EA01CE17DF07EE
:10486000E8F54A815B819E0141155105B1F7E901E7
:10487000FB83EA8349915991C40FD51FEC17FD07BB
:1048800061F4808191810296840F951FE9019983DB
:104890008883828193819B838A83F0E0E0E0129693
:1048A0008D919C9113970097B9F52D913C9111979B
:1048B000CD010296820F931F2091CE063091CF0634
:1048C0002817390739F6309751F51092D106109212
:1048D000D006B093CF06A093CE06BCCFD383C283BD
:1048E00040815181840F951FC817D90761F44E5F2D
:1048F0005F4F88819981480F591F518340838A8176
:104900009B81938382832115310509F0B0CFF09309
:10491000D106E093D0069ECFFD01DC01C0CF13820B
:104920001282D7CFB0E0A0E0E8E9F4E20C949A223A
:104930008C01009751F4CB010E946D238C01C801BA
:10494000CDB7DEB7E0E10C94B622FC01E60FF71F0D
:104950009C0122503109E217F30708F49DC0D901E8
:10496000CD91DC911197C617D70798F0C530D105C6
:1049700030F3CE0104978617970708F3C61BD70BB1
:104980002297C193D1936D937C93CF010E94092408
:10499000D6CF5B01AC1ABD0A4C018C0E9D1EA091B6
:1049A000D006B091D106512C412CF12CE12C10975E
:1049B00031F58091CE069091CF068815990509F0C2
:1049C0005CC04616570608F058C0809104019091CB
:1049D0000501009741F48DB79EB7409108015091B1
:1049E0000901841B950BE817F90708F055C0F093EF
:1049F000CF06E093CE06F90171836083A0CF8D913D
:104A00009C91119712966C90129713967C90139725
:104A1000A815B90559F56C0142E0C40ED11CCA14A1
:104A2000DB0420F1AC014A195B09DA0112961597F3
:104A300080F06282738251834083D9016D937C93AD
:104A4000E114F10471F0D7011396FC93EE931297E1
:104A500076CF22968C0F9D1FF90191838083F301FD
:104A6000EFCFF093D106E093D00669CF48165906F0
:104A700008F42C017D01D3019ACFCB010E946D2354
:104A80007C01009749F0AE01B8010E945425C8018D
:104A90000E940924870153CF10E000E050CF81E04D
:104AA00090E0F8940C946B25FB01DC0102C00190AE
:104AB0000D9241505040D8F70895DC0101C06D932C
:104AC00041505040E0F70895FB01DC0101900D9248
:0A4AD0000020E1F70895F894FFCFED
:104ADA00FE00FE000000D2068000FFFFFFFF00007C
:104AEA000000290F290F290FC20DBE0D7B0C510D95
:104AFA0000000000DC0C800C180AC20DBE0D7B0CF5
:104B0A00FF00B70700000000DC0C800C7E0CC20D11
:104B1A00BE0D7B0CFF001A0A3F065B4F666D7D07D0
:104B2A007F6F777C395E797101000A006400E803BF
:104B3A0000000000A90109013601F60167014501DB
:104B4A005901000000008C065F0677074F06020134
:104B5A00C200500673657475700A006C622D696E26
:104B6A0069740A006C622D72656C656173650A006E
:104B7A00736572766F2D6174746163680A00736578
:104B8A0072766F2D6465746163680A007365727664
:0A4B9A006F2D77726974652000002A
:00000001FF
